{
  "contractName": "BSCstarterPresale",
  "abi": [
    {
      "inputs": [
        {
          "internalType": "address",
          "name": "_bscsFactoryAddress",
          "type": "address"
        },
        {
          "internalType": "address",
          "name": "_bscStarterInfo",
          "type": "address"
        },
        {
          "internalType": "address",
          "name": "_bscsDevAddress",
          "type": "address"
        },
        {
          "internalType": "uint256",
          "name": "_minRewardQualifyBal",
          "type": "uint256"
        },
        {
          "internalType": "uint256",
          "name": "_minRewardQualifyPercentage",
          "type": "uint256"
        }
      ],
      "stateMutability": "nonpayable",
      "type": "constructor"
    },
    {
      "inputs": [],
      "name": "auditInformation",
      "outputs": [
        {
          "internalType": "bytes32",
          "name": "auditor",
          "type": "bytes32"
        },
        {
          "internalType": "bool",
          "name": "isVerified",
          "type": "bool"
        },
        {
          "internalType": "bool",
          "name": "isWarning",
          "type": "bool"
        },
        {
          "internalType": "string",
          "name": "verifiedHash",
          "type": "string"
        },
        {
          "internalType": "string",
          "name": "warningHash",
          "type": "string"
        }
      ],
      "stateMutability": "view",
      "type": "function",
      "constant": true
    },
    {
      "inputs": [
        {
          "internalType": "address",
          "name": "",
          "type": "address"
        }
      ],
      "name": "auditorWhitelistedAddresses",
      "outputs": [
        {
          "internalType": "bool",
          "name": "",
          "type": "bool"
        }
      ],
      "stateMutability": "view",
      "type": "function",
      "constant": true
    },
    {
      "inputs": [],
      "name": "bscStarterInfo",
      "outputs": [
        {
          "internalType": "contract BSCstarterInfo",
          "name": "",
          "type": "address"
        }
      ],
      "stateMutability": "view",
      "type": "function",
      "constant": true
    },
    {
      "inputs": [],
      "name": "bscsDevAddress",
      "outputs": [
        {
          "internalType": "address payable",
          "name": "",
          "type": "address"
        }
      ],
      "stateMutability": "view",
      "type": "function",
      "constant": true
    },
    {
      "inputs": [],
      "name": "bscsDevFeesExempted",
      "outputs": [
        {
          "internalType": "bool",
          "name": "",
          "type": "bool"
        }
      ],
      "stateMutability": "view",
      "type": "function",
      "constant": true
    },
    {
      "inputs": [],
      "name": "bscsId",
      "outputs": [
        {
          "internalType": "uint256",
          "name": "",
          "type": "uint256"
        }
      ],
      "stateMutability": "view",
      "type": "function",
      "constant": true
    },
    {
      "inputs": [],
      "name": "bscsLiqLockAddress",
      "outputs": [
        {
          "internalType": "address",
          "name": "",
          "type": "address"
        }
      ],
      "stateMutability": "view",
      "type": "function",
      "constant": true
    },
    {
      "inputs": [],
      "name": "bscsStakingPool",
      "outputs": [
        {
          "internalType": "contract BSCstarterStaking",
          "name": "",
          "type": "address"
        }
      ],
      "stateMutability": "view",
      "type": "function",
      "constant": true
    },
    {
      "inputs": [],
      "name": "bscsToken",
      "outputs": [
        {
          "internalType": "contract IERC20",
          "name": "",
          "type": "address"
        }
      ],
      "stateMutability": "view",
      "type": "function",
      "constant": true
    },
    {
      "inputs": [],
      "name": "cakeLPTokensLockDurationInDays",
      "outputs": [
        {
          "internalType": "uint256",
          "name": "",
          "type": "uint256"
        }
      ],
      "stateMutability": "view",
      "type": "function",
      "constant": true
    },
    {
      "inputs": [],
      "name": "cakeLiquidityAdded",
      "outputs": [
        {
          "internalType": "bool",
          "name": "",
          "type": "bool"
        }
      ],
      "stateMutability": "view",
      "type": "function",
      "constant": true
    },
    {
      "inputs": [],
      "name": "cakeLiquidityAddingTime",
      "outputs": [
        {
          "internalType": "uint256",
          "name": "",
          "type": "uint256"
        }
      ],
      "stateMutability": "view",
      "type": "function",
      "constant": true
    },
    {
      "inputs": [],
      "name": "cakeLiquidityPercentageAllocation",
      "outputs": [
        {
          "internalType": "uint256",
          "name": "",
          "type": "uint256"
        }
      ],
      "stateMutability": "view",
      "type": "function",
      "constant": true
    },
    {
      "inputs": [],
      "name": "cakeListingPriceInWei",
      "outputs": [
        {
          "internalType": "uint256",
          "name": "",
          "type": "uint256"
        }
      ],
      "stateMutability": "view",
      "type": "function",
      "constant": true
    },
    {
      "inputs": [
        {
          "internalType": "address",
          "name": "",
          "type": "address"
        }
      ],
      "name": "claimed",
      "outputs": [
        {
          "internalType": "bool",
          "name": "",
          "type": "bool"
        }
      ],
      "stateMutability": "view",
      "type": "function",
      "constant": true
    },
    {
      "inputs": [],
      "name": "closeTime",
      "outputs": [
        {
          "internalType": "uint256",
          "name": "",
          "type": "uint256"
        }
      ],
      "stateMutability": "view",
      "type": "function",
      "constant": true
    },
    {
      "inputs": [],
      "name": "hardCapInWei",
      "outputs": [
        {
          "internalType": "uint256",
          "name": "",
          "type": "uint256"
        }
      ],
      "stateMutability": "view",
      "type": "function",
      "constant": true
    },
    {
      "inputs": [
        {
          "internalType": "address",
          "name": "",
          "type": "address"
        }
      ],
      "name": "investments",
      "outputs": [
        {
          "internalType": "uint256",
          "name": "",
          "type": "uint256"
        }
      ],
      "stateMutability": "view",
      "type": "function",
      "constant": true
    },
    {
      "inputs": [],
      "name": "linkGithub",
      "outputs": [
        {
          "internalType": "bytes32",
          "name": "",
          "type": "bytes32"
        }
      ],
      "stateMutability": "view",
      "type": "function",
      "constant": true
    },
    {
      "inputs": [],
      "name": "linkLogo",
      "outputs": [
        {
          "internalType": "bytes32",
          "name": "",
          "type": "bytes32"
        }
      ],
      "stateMutability": "view",
      "type": "function",
      "constant": true
    },
    {
      "inputs": [],
      "name": "linkTelegram",
      "outputs": [
        {
          "internalType": "bytes32",
          "name": "",
          "type": "bytes32"
        }
      ],
      "stateMutability": "view",
      "type": "function",
      "constant": true
    },
    {
      "inputs": [],
      "name": "linkTwitter",
      "outputs": [
        {
          "internalType": "bytes32",
          "name": "",
          "type": "bytes32"
        }
      ],
      "stateMutability": "view",
      "type": "function",
      "constant": true
    },
    {
      "inputs": [],
      "name": "linkWebsite",
      "outputs": [
        {
          "internalType": "bytes32",
          "name": "",
          "type": "bytes32"
        }
      ],
      "stateMutability": "view",
      "type": "function",
      "constant": true
    },
    {
      "inputs": [],
      "name": "maxInvestInWei",
      "outputs": [
        {
          "internalType": "uint256",
          "name": "",
          "type": "uint256"
        }
      ],
      "stateMutability": "view",
      "type": "function",
      "constant": true
    },
    {
      "inputs": [],
      "name": "minInvestInWei",
      "outputs": [
        {
          "internalType": "uint256",
          "name": "",
          "type": "uint256"
        }
      ],
      "stateMutability": "view",
      "type": "function",
      "constant": true
    },
    {
      "inputs": [],
      "name": "minInvestorBSCSBalance",
      "outputs": [
        {
          "internalType": "uint256",
          "name": "",
          "type": "uint256"
        }
      ],
      "stateMutability": "view",
      "type": "function",
      "constant": true
    },
    {
      "inputs": [],
      "name": "minRewardQualifyBal",
      "outputs": [
        {
          "internalType": "uint256",
          "name": "",
          "type": "uint256"
        }
      ],
      "stateMutability": "view",
      "type": "function",
      "constant": true
    },
    {
      "inputs": [],
      "name": "minRewardQualifyPercentage",
      "outputs": [
        {
          "internalType": "uint256",
          "name": "",
          "type": "uint256"
        }
      ],
      "stateMutability": "view",
      "type": "function",
      "constant": true
    },
    {
      "inputs": [],
      "name": "minVoterBSCSBalance",
      "outputs": [
        {
          "internalType": "uint256",
          "name": "",
          "type": "uint256"
        }
      ],
      "stateMutability": "view",
      "type": "function",
      "constant": true
    },
    {
      "inputs": [],
      "name": "minYesVotesThreshold",
      "outputs": [
        {
          "internalType": "uint256",
          "name": "",
          "type": "uint256"
        }
      ],
      "stateMutability": "view",
      "type": "function",
      "constant": true
    },
    {
      "inputs": [],
      "name": "noVotes",
      "outputs": [
        {
          "internalType": "uint256",
          "name": "",
          "type": "uint256"
        }
      ],
      "stateMutability": "view",
      "type": "function",
      "constant": true
    },
    {
      "inputs": [],
      "name": "onlyWhitelistedAddressesAllowed",
      "outputs": [
        {
          "internalType": "bool",
          "name": "",
          "type": "bool"
        }
      ],
      "stateMutability": "view",
      "type": "function",
      "constant": true
    },
    {
      "inputs": [],
      "name": "openTime",
      "outputs": [
        {
          "internalType": "uint256",
          "name": "",
          "type": "uint256"
        }
      ],
      "stateMutability": "view",
      "type": "function",
      "constant": true
    },
    {
      "inputs": [],
      "name": "presaleCancelled",
      "outputs": [
        {
          "internalType": "bool",
          "name": "",
          "type": "bool"
        }
      ],
      "stateMutability": "view",
      "type": "function",
      "constant": true
    },
    {
      "inputs": [],
      "name": "presaleCreatorAddress",
      "outputs": [
        {
          "internalType": "address payable",
          "name": "",
          "type": "address"
        }
      ],
      "stateMutability": "view",
      "type": "function",
      "constant": true
    },
    {
      "inputs": [],
      "name": "presaleCreatorClaimTime",
      "outputs": [
        {
          "internalType": "uint256",
          "name": "",
          "type": "uint256"
        }
      ],
      "stateMutability": "view",
      "type": "function",
      "constant": true
    },
    {
      "inputs": [],
      "name": "presaleCreatorClaimWei",
      "outputs": [
        {
          "internalType": "uint256",
          "name": "",
          "type": "uint256"
        }
      ],
      "stateMutability": "view",
      "type": "function",
      "constant": true
    },
    {
      "inputs": [],
      "name": "presaleGrantId",
      "outputs": [
        {
          "internalType": "uint256",
          "name": "",
          "type": "uint256"
        }
      ],
      "stateMutability": "view",
      "type": "function",
      "constant": true
    },
    {
      "inputs": [],
      "name": "saleTitle",
      "outputs": [
        {
          "internalType": "bytes32",
          "name": "",
          "type": "bytes32"
        }
      ],
      "stateMutability": "view",
      "type": "function",
      "constant": true
    },
    {
      "inputs": [],
      "name": "softCapInWei",
      "outputs": [
        {
          "internalType": "uint256",
          "name": "",
          "type": "uint256"
        }
      ],
      "stateMutability": "view",
      "type": "function",
      "constant": true
    },
    {
      "inputs": [],
      "name": "token",
      "outputs": [
        {
          "internalType": "contract IERC20",
          "name": "",
          "type": "address"
        }
      ],
      "stateMutability": "view",
      "type": "function",
      "constant": true
    },
    {
      "inputs": [],
      "name": "tokenPriceInWei",
      "outputs": [
        {
          "internalType": "uint256",
          "name": "",
          "type": "uint256"
        }
      ],
      "stateMutability": "view",
      "type": "function",
      "constant": true
    },
    {
      "inputs": [],
      "name": "tokensLeft",
      "outputs": [
        {
          "internalType": "uint256",
          "name": "",
          "type": "uint256"
        }
      ],
      "stateMutability": "view",
      "type": "function",
      "constant": true
    },
    {
      "inputs": [],
      "name": "totalCollectedWei",
      "outputs": [
        {
          "internalType": "uint256",
          "name": "",
          "type": "uint256"
        }
      ],
      "stateMutability": "view",
      "type": "function",
      "constant": true
    },
    {
      "inputs": [],
      "name": "totalInvestorsCount",
      "outputs": [
        {
          "internalType": "uint256",
          "name": "",
          "type": "uint256"
        }
      ],
      "stateMutability": "view",
      "type": "function",
      "constant": true
    },
    {
      "inputs": [],
      "name": "totalTokens",
      "outputs": [
        {
          "internalType": "uint256",
          "name": "",
          "type": "uint256"
        }
      ],
      "stateMutability": "view",
      "type": "function",
      "constant": true
    },
    {
      "inputs": [],
      "name": "unsoldTokensDumpAddress",
      "outputs": [
        {
          "internalType": "address",
          "name": "",
          "type": "address"
        }
      ],
      "stateMutability": "view",
      "type": "function",
      "constant": true
    },
    {
      "inputs": [
        {
          "internalType": "address",
          "name": "",
          "type": "address"
        }
      ],
      "name": "voters",
      "outputs": [
        {
          "internalType": "uint256",
          "name": "",
          "type": "uint256"
        }
      ],
      "stateMutability": "view",
      "type": "function",
      "constant": true
    },
    {
      "inputs": [
        {
          "internalType": "address",
          "name": "",
          "type": "address"
        }
      ],
      "name": "whitelistedAddresses",
      "outputs": [
        {
          "internalType": "bool",
          "name": "",
          "type": "bool"
        }
      ],
      "stateMutability": "view",
      "type": "function",
      "constant": true
    },
    {
      "inputs": [],
      "name": "yesVotes",
      "outputs": [
        {
          "internalType": "uint256",
          "name": "",
          "type": "uint256"
        }
      ],
      "stateMutability": "view",
      "type": "function",
      "constant": true
    },
    {
      "stateMutability": "payable",
      "type": "receive",
      "payable": true
    },
    {
      "inputs": [
        {
          "internalType": "address",
          "name": "_presaleCreator",
          "type": "address"
        },
        {
          "internalType": "address",
          "name": "_tokenAddress",
          "type": "address"
        },
        {
          "internalType": "address",
          "name": "_bscsTokenAddress",
          "type": "address"
        },
        {
          "internalType": "address",
          "name": "_unsoldTokensDumpAddress",
          "type": "address"
        }
      ],
      "name": "setAddressInfo",
      "outputs": [],
      "stateMutability": "nonpayable",
      "type": "function"
    },
    {
      "inputs": [
        {
          "internalType": "uint256",
          "name": "_totalTokens",
          "type": "uint256"
        },
        {
          "internalType": "uint256",
          "name": "_tokenPriceInWei",
          "type": "uint256"
        },
        {
          "internalType": "uint256",
          "name": "_hardCapInWei",
          "type": "uint256"
        },
        {
          "internalType": "uint256",
          "name": "_softCapInWei",
          "type": "uint256"
        },
        {
          "internalType": "uint256",
          "name": "_maxInvestInWei",
          "type": "uint256"
        },
        {
          "internalType": "uint256",
          "name": "_minInvestInWei",
          "type": "uint256"
        },
        {
          "internalType": "uint256",
          "name": "_openTime",
          "type": "uint256"
        },
        {
          "internalType": "uint256",
          "name": "_closeTime",
          "type": "uint256"
        }
      ],
      "name": "setGeneralInfo",
      "outputs": [],
      "stateMutability": "nonpayable",
      "type": "function"
    },
    {
      "inputs": [
        {
          "internalType": "uint256",
          "name": "_cakeListingPriceInWei",
          "type": "uint256"
        },
        {
          "internalType": "uint256",
          "name": "_cakeLiquidityAddingTime",
          "type": "uint256"
        },
        {
          "internalType": "uint256",
          "name": "_cakeLPTokensLockDurationInDays",
          "type": "uint256"
        },
        {
          "internalType": "uint256",
          "name": "_cakeLiquidityPercentageAllocation",
          "type": "uint256"
        }
      ],
      "name": "setPancakeSwapInfo",
      "outputs": [],
      "stateMutability": "nonpayable",
      "type": "function"
    },
    {
      "inputs": [
        {
          "internalType": "bytes32",
          "name": "_saleTitle",
          "type": "bytes32"
        },
        {
          "internalType": "bytes32",
          "name": "_linkTelegram",
          "type": "bytes32"
        },
        {
          "internalType": "bytes32",
          "name": "_linkGithub",
          "type": "bytes32"
        },
        {
          "internalType": "bytes32",
          "name": "_linkTwitter",
          "type": "bytes32"
        },
        {
          "internalType": "bytes32",
          "name": "_linkWebsite",
          "type": "bytes32"
        },
        {
          "internalType": "bytes32",
          "name": "_linkLogo",
          "type": "bytes32"
        }
      ],
      "name": "setStringInfo",
      "outputs": [],
      "stateMutability": "nonpayable",
      "type": "function"
    },
    {
      "inputs": [
        {
          "internalType": "bytes32",
          "name": "_auditor",
          "type": "bytes32"
        },
        {
          "internalType": "bool",
          "name": "_isVerified",
          "type": "bool"
        },
        {
          "internalType": "bool",
          "name": "_isWarning",
          "type": "bool"
        },
        {
          "internalType": "string",
          "name": "_verifiedHash",
          "type": "string"
        },
        {
          "internalType": "string",
          "name": "_warningHash",
          "type": "string"
        }
      ],
      "name": "setAuditorInfo",
      "outputs": [],
      "stateMutability": "nonpayable",
      "type": "function"
    },
    {
      "inputs": [
        {
          "internalType": "address",
          "name": "_bscsLiqLockAddress",
          "type": "address"
        },
        {
          "internalType": "uint256",
          "name": "_bscsDevFeePercentage",
          "type": "uint256"
        },
        {
          "internalType": "uint256",
          "name": "_bscsMinDevFeeInWei",
          "type": "uint256"
        },
        {
          "internalType": "uint256",
          "name": "_bscsId",
          "type": "uint256"
        },
        {
          "internalType": "uint256",
          "name": "_presaleGrantId",
          "type": "uint256"
        },
        {
          "internalType": "address",
          "name": "_bscsStakingPool",
          "type": "address"
        }
      ],
      "name": "setBscsInfo",
      "outputs": [],
      "stateMutability": "nonpayable",
      "type": "function"
    },
    {
      "inputs": [
        {
          "internalType": "bool",
          "name": "_bscsDevFeesExempted",
          "type": "bool"
        }
      ],
      "name": "setBscsDevFeesExempted",
      "outputs": [],
      "stateMutability": "nonpayable",
      "type": "function"
    },
    {
      "inputs": [
        {
          "internalType": "bool",
          "name": "_onlyWhitelistedAddressesAllowed",
          "type": "bool"
        }
      ],
      "name": "setOnlyWhitelistedAddressesAllowed",
      "outputs": [],
      "stateMutability": "nonpayable",
      "type": "function"
    },
    {
      "inputs": [
        {
          "internalType": "uint256",
          "name": "_minVoterBSCSBalance",
          "type": "uint256"
        }
      ],
      "name": "setMinVoterBSCSBalance",
      "outputs": [],
      "stateMutability": "nonpayable",
      "type": "function"
    },
    {
      "inputs": [
        {
          "internalType": "uint256",
          "name": "_minYesVotesThreshold",
          "type": "uint256"
        }
      ],
      "name": "setMinYesVotesThreshold",
      "outputs": [],
      "stateMutability": "nonpayable",
      "type": "function"
    },
    {
      "inputs": [
        {
          "internalType": "uint256",
          "name": "_minInvestorBSCSBalance",
          "type": "uint256"
        }
      ],
      "name": "setMinInvestorBSCSBalance",
      "outputs": [],
      "stateMutability": "nonpayable",
      "type": "function"
    },
    {
      "inputs": [
        {
          "internalType": "address[]",
          "name": "_whitelistedAddresses",
          "type": "address[]"
        }
      ],
      "name": "addWhitelistedAddresses",
      "outputs": [],
      "stateMutability": "nonpayable",
      "type": "function"
    },
    {
      "inputs": [
        {
          "internalType": "address[]",
          "name": "_whitelistedAddresses",
          "type": "address[]"
        }
      ],
      "name": "addAuditorWhitelistedAddresses",
      "outputs": [],
      "stateMutability": "nonpayable",
      "type": "function"
    },
    {
      "inputs": [],
      "name": "invest",
      "outputs": [],
      "stateMutability": "payable",
      "type": "function",
      "payable": true
    },
    {
      "inputs": [],
      "name": "addLiquidityAndLockLPTokens",
      "outputs": [],
      "stateMutability": "nonpayable",
      "type": "function"
    },
    {
      "inputs": [
        {
          "internalType": "bool",
          "name": "yes",
          "type": "bool"
        }
      ],
      "name": "vote",
      "outputs": [],
      "stateMutability": "nonpayable",
      "type": "function"
    },
    {
      "inputs": [],
      "name": "claimTokens",
      "outputs": [],
      "stateMutability": "nonpayable",
      "type": "function"
    },
    {
      "inputs": [],
      "name": "getRefund",
      "outputs": [],
      "stateMutability": "nonpayable",
      "type": "function"
    },
    {
      "inputs": [],
      "name": "cancelAndTransferTokensToPresaleCreator",
      "outputs": [],
      "stateMutability": "nonpayable",
      "type": "function"
    },
    {
      "inputs": [],
      "name": "collectFundsRaised",
      "outputs": [],
      "stateMutability": "nonpayable",
      "type": "function"
    },
    {
      "inputs": [],
      "name": "burnUnsoldTokens",
      "outputs": [],
      "stateMutability": "nonpayable",
      "type": "function"
    }
  ],
  "bytecode": "0x608060405269152d02c7e14af6800000602455683635c9adc5dea000006025556029805463ffffffff191690553480156200003957600080fd5b506040516200383938038062003839833981810160405260a08110156200005f57600080fd5b508051602082015160408301516060840151608090940151929391929091906001600160a01b0385166200009257600080fd5b6001600160a01b038316620000a657600080fd5b600080546001600160a01b039687166001600160a01b03199182161790915560018054948716948216949094179093556027919091556028556004805492909316911617905561373d80620000fc6000396000f3fe6080604052600436106104135760003560e01c8063918003341161021e578063c6a4266911610123578063e1461263116100ab578063e8b5e51f1161007a578063e8b5e51f14610dbe578063ebc9afcc14610dc6578063eda0567814610ea8578063fb286c6514610ebd578063fc0c546a14610ed257610422565b8063e146126314610d43578063e47935e614610d7f578063e58626ae14610d94578063e861e34d14610da957610422565b8063ce8f582e116100f2578063ce8f582e14610c74578063d5933c2c14610c89578063d64d313814610c9e578063d6c86b1b14610d19578063d9c5032014610d2e57610422565b8063c6a4266914610b9c578063c884ef8314610bb1578063c94cc19214610be4578063ca2cfc2014610bf957610422565b8063b31f8f93116101a6578063b65fa2a411610175578063b65fa2a414610b1e578063c04c8e9a14610b33578063c36002c914610b5d578063c502b13b14610b72578063c51d16b614610b8757610422565b8063b31f8f9314610aca578063b425688814610adf578063b51245bf14610af4578063b5b47f4214610b0957610422565b80639fa1eccc116101ed5780639fa1eccc14610a2c578063a2460d2e14610a41578063a3ec138d14610a56578063b1406b7914610a89578063b2d5ae4414610ab557610422565b806391800334146109ba578063940bb344146109cf57806396b98862146109e45780639767b58c14610a1757610422565b8063411db1ad116103245780636cb96287116102ac5780637e1c0c091161027b5780637e1c0c091461080f5780637f0feacc1461082457806380e2bc271461093057806389771dd81461097b5780638eb104261461099057610422565b80636cb96287146107bb5780637275ae14146107d057806374458306146107e5578063773473ff146107fa57610422565b80634c83174b116102f35780634c83174b1461073b57806350c7339114610750578063521619071461076557806355973a9014610791578063627749e6146107a657610422565b8063411db1ad146106d0578063465f4136146106e557806348c54b9d146106fa5780634b9f5c981461070f57610422565b806313a8d186116103a75780631c194ba9116103765780631c194ba9146105f45780632b24a878146106495780632f8de810146106915780632fdd9ad1146106a657806335d079de146106bb57610422565b806313a8d1861461056d57806316bc4f0e14610597578063188207e5146105ca5780631afb0220146105df57610422565b806306c933d8116103e357806306c933d8146104e75780630ca99ca81461052e5780630cdc1fc5146105435780630fe711e41461055857610422565b80629948361461042757806301f009ae1461044e57806302febc891461046357806304607ed4146104b657610422565b3661042257610420610ee7565b005b600080fd5b34801561043357600080fd5b5061043c6114fe565b60408051918252519081900360200190f35b34801561045a57600080fd5b5061043c611504565b34801561046f57600080fd5b50610420600480360360c081101561048657600080fd5b506001600160a01b03813581169160208101359160408201359160608101359160808201359160a001351661150a565b3480156104c257600080fd5b506104cb611579565b604080516001600160a01b039092168252519081900360200190f35b3480156104f357600080fd5b5061051a6004803603602081101561050a57600080fd5b50356001600160a01b0316611588565b604080519115158252519081900360200190f35b34801561053a57600080fd5b5061043c61159d565b34801561054f57600080fd5b5061043c6115a3565b34801561056457600080fd5b5061043c6115a9565b34801561057957600080fd5b506104206004803603602081101561059057600080fd5b50356115af565b3480156105a357600080fd5b5061051a600480360360208110156105ba57600080fd5b50356001600160a01b03166115ff565b3480156105d657600080fd5b506104cb611614565b3480156105eb57600080fd5b5061043c611623565b34801561060057600080fd5b50610420600480360361010081101561061857600080fd5b5080359060208101359060408101359060608101359060808101359060a08101359060c08101359060e00135611629565b34801561065557600080fd5b50610420600480360360c081101561066c57600080fd5b5080359060208101359060408101359060608101359060808101359060a00135611733565b34801561069d57600080fd5b5061043c6117b2565b3480156106b257600080fd5b5061043c6117b8565b3480156106c757600080fd5b506104cb6117be565b3480156106dc57600080fd5b506104cb6117cd565b3480156106f157600080fd5b506104cb6117dc565b34801561070657600080fd5b506104206117eb565b34801561071b57600080fd5b506104206004803603602081101561073257600080fd5b50351515611acb565b34801561074757600080fd5b5061043c611da3565b34801561075c57600080fd5b5061043c611da9565b34801561077157600080fd5b506104206004803603602081101561078857600080fd5b50351515611daf565b34801561079d57600080fd5b5061051a611df7565b3480156107b257600080fd5b5061043c611e05565b3480156107c757600080fd5b50610420611e0b565b3480156107dc57600080fd5b5061043c611ed6565b3480156107f157600080fd5b5061043c611edc565b34801561080657600080fd5b5061051a611ee2565b34801561081b57600080fd5b5061043c611ef1565b34801561083057600080fd5b50610839611ef7565b60405180868152602001851515815260200184151581526020018060200180602001838103835285818151815260200191508051906020019080838360005b83811015610890578181015183820152602001610878565b50505050905090810190601f1680156108bd5780820380516001836020036101000a031916815260200191505b50838103825284518152845160209182019186019080838360005b838110156108f05781810151838201526020016108d8565b50505050905090810190601f16801561091d5780820380516001836020036101000a031916815260200191505b5097505050505050505060405180910390f35b34801561093c57600080fd5b506104206004803603608081101561095357600080fd5b506001600160a01b038135811691602081013582169160408201358116916060013516612030565b34801561098757600080fd5b5061043c61211b565b34801561099c57600080fd5b50610420600480360360208110156109b357600080fd5b5035612121565b3480156109c657600080fd5b5061043c612152565b3480156109db57600080fd5b50610420612158565b3480156109f057600080fd5b5061043c60048036036020811015610a0757600080fd5b50356001600160a01b0316612308565b348015610a2357600080fd5b5061043c61231a565b348015610a3857600080fd5b5061043c612320565b348015610a4d57600080fd5b506104cb612326565b348015610a6257600080fd5b5061043c60048036036020811015610a7957600080fd5b50356001600160a01b0316612335565b348015610a9557600080fd5b5061042060048036036020811015610aac57600080fd5b50351515612347565b348015610ac157600080fd5b506104206123c3565b348015610ad657600080fd5b5061043c612690565b348015610aeb57600080fd5b5061043c612696565b348015610b0057600080fd5b5061043c61269c565b348015610b1557600080fd5b5061043c6126a2565b348015610b2a57600080fd5b506104cb6126a8565b348015610b3f57600080fd5b5061042060048036036020811015610b5657600080fd5b50356126b7565b348015610b6957600080fd5b50610420612709565b348015610b7e57600080fd5b5061043c612871565b348015610b9357600080fd5b5061043c612877565b348015610ba857600080fd5b5061043c61287d565b348015610bbd57600080fd5b5061051a60048036036020811015610bd457600080fd5b50356001600160a01b0316612883565b348015610bf057600080fd5b5061043c612898565b348015610c0557600080fd5b5061042060048036036020811015610c1c57600080fd5b810190602081018135600160201b811115610c3657600080fd5b820183602082011115610c4857600080fd5b803590602001918460208302840111600160201b83111715610c6957600080fd5b50909250905061289e565b348015610c8057600080fd5b50610420612969565b348015610c9557600080fd5b5061051a612f77565b348015610caa57600080fd5b5061042060048036036020811015610cc157600080fd5b810190602081018135600160201b811115610cdb57600080fd5b820183602082011115610ced57600080fd5b803590602001918460208302840111600160201b83111715610d0e57600080fd5b509092509050612f87565b348015610d2557600080fd5b5061043c613009565b348015610d3a57600080fd5b5061043c61300f565b348015610d4f57600080fd5b5061042060048036036080811015610d6657600080fd5b5080359060208101359060408101359060600135613015565b348015610d8b57600080fd5b5061043c6130dd565b348015610da057600080fd5b5061051a6130e3565b348015610db557600080fd5b5061043c6130ec565b610420610ee7565b348015610dd257600080fd5b50610420600480360360a0811015610de957600080fd5b8135916020810135151591604082013515159190810190608081016060820135600160201b811115610e1a57600080fd5b820183602082011115610e2c57600080fd5b803590602001918460018302840111600160201b83111715610e4d57600080fd5b919390929091602081019035600160201b811115610e6a57600080fd5b820183602082011115610e7c57600080fd5b803590602001918460018302840111600160201b83111715610e9d57600080fd5b5090925090506130f2565b348015610eb457600080fd5b5061043c613199565b348015610ec957600080fd5b5061043c61319f565b348015610ede57600080fd5b506104cb6131a5565b602954610100900460ff161580610f0d5750336000908152600a602052604090205460ff165b610f58576040805162461bcd60e51b81526020600482015260176024820152761059191c995cdcc81b9bdd081dda1a5d195b1a5cdd1959604a1b604482015290519081900360640190fd5b6029546301000000900460ff1615610fa3576040805162461bcd60e51b815260206004820152600960248201526810d85b98d95b1b195960ba1b604482015290519081900360640190fd5b601b54421015610feb576040805162461bcd60e51b815260206004820152600e60248201526d139bdd081e595d081bdc195b995960921b604482015290519081900360640190fd5b601c54421061102a576040805162461bcd60e51b815260206004820152600660248201526510db1bdcd95960d21b604482015290519081900360640190fd5b60175460135410611075576040805162461bcd60e51b815260206004820152601060248201526f12185c990818d85c081c995858da195960821b604482015290519081900360640190fd5b60006015541161108457600080fd5b6000341161109157600080fd5b600354604080516387cad0bf60e01b81523360048201529051600092839283926001600160a01b03909216916387cad0bf91602480820192606092909190829003018186803b1580156110e357600080fd5b505afa1580156110f7573d6000803e3d6000fd5b505050506040513d606081101561110d57600080fd5b50805160208083015160409384015160048054865163469d7cd160e11b815296519599509297509095506000946001600160a01b0390921693638d3af9a29383830193909290829003018186803b15801561116757600080fd5b505afa15801561117b573d6000803e3d6000fd5b505050506040513d602081101561119157600080fd5b5051600480546040805163c408689360e01b81523393810193909352519293506000926001600160a01b039091169163c4086893916024808301926020929190829003018186803b1580156111e557600080fd5b505afa1580156111f9573d6000803e3d6000fd5b505050506040513d602081101561120f57600080fd5b5051905042848301116112295761122681866131b4565b90505b60275481106112d8576000611256606461125060285460165461321790919063ffffffff16565b90613270565b9050611285670de0b6b3a764000061125061127c846016546132b290919063ffffffff16565b60155490613217565b3411156112d2576040805162461bcd60e51b8152602060048201526016602482015275139bdd08195b9bdd59da081d1bdad95b9cc81b19599d60521b604482015290519081900360640190fd5b50611348565b6112fb670de0b6b3a764000061125060165460155461321790919063ffffffff16565b341115611348576040805162461bcd60e51b8152602060048201526016602482015275139bdd08195b9bdd59da081d1bdad95b9cc81b19599d60521b604482015290519081900360640190fd5b3360009081526009602052604081205461136290346131b4565b9050601a548110158061138b575060175461138590670de0b6b3a76400006132b2565b60135410155b6113dc576040805162461bcd60e51b815260206004820152601a60248201527f4d696e20696e766573746d656e74206e6f742072656163686564000000000000604482015290519081900360640190fd5b60195415806113ed57506019548111155b611437576040805162461bcd60e51b815260206004820152601660248201527513585e081a5b9d995cdd1b595b9d081c995858da195960521b604482015290519081900360640190fd5b6026541561149657602654821015611496576040805162461bcd60e51b815260206004820152601a60248201527f4e6f7420656e6f7567682042534353206f6e206163636f756e74000000000000604482015290519081900360640190fd5b336000908152600960205260409020546114bc576010546114b89060016131b4565b6010555b6013546114c990346131b4565b6013553360009081526009602052604090208190556114f36114ea346132f4565b601554906132b2565b601555505050505050565b601e5481565b600f5481565b6000546001600160a01b031633148061152d57506001546001600160a01b031633145b61153657600080fd5b600280546001600160a01b039788166001600160a01b031991821617909155600c95909555600d93909355600e91909155600f5560038054919093169116179055565b6003546001600160a01b031681565b600a6020526000908152604090205460ff1681565b60175481565b602c5481565b60255481565b6000546001600160a01b03163314806115d257506001546001600160a01b031633145b6115db57600080fd5b678ac7230489e800008110156115f057600080fd5b670de0b6b3a764000002602555565b60306020526000908152604090205460ff1681565b6006546001600160a01b031681565b60275481565b6007546001600160a01b031633148061164c57506000546001600160a01b031633145b61168b576040805162461bcd60e51b815260206004820152601e60248201526000805160206136e8833981519152604482015290519081900360640190fd5b6000881161169857600080fd5b600087116116a557600080fd5b600082116116b257600080fd5b600081116116bf57600080fd5b600086116116cc57600080fd5b6116d68888613217565b8611156116e257600080fd5b858511156116ef57600080fd5b838311156116fc57600080fd5b80821061170857600080fd5b6014889055601597909755601695909555601793909355601891909155601955601a55601b55601c55565b6007546001600160a01b031633148061175657506000546001600160a01b031633145b611795576040805162461bcd60e51b815260206004820152601e60248201526000805160206136e8833981519152604482015290519081900360640190fd5b602a95909555602b93909355602d91909155602c55602e55602f55565b60165481565b60205481565b6007546001600160a01b031681565b6001546001600160a01b031681565b6002546001600160a01b031681565b602954610100900460ff1615806118115750336000908152600a602052604090205460ff165b61185c576040805162461bcd60e51b81526020600482015260176024820152761059191c995cdcc81b9bdd081dda1a5d195b1a5cdd1959604a1b604482015290519081900360640190fd5b6029546301000000900460ff16156118a7576040805162461bcd60e51b815260206004820152600960248201526810d85b98d95b1b195960ba1b604482015290519081900360640190fd5b336000908152600960205260409020546118fa576040805162461bcd60e51b815260206004820152600f60248201526e2737ba1030b71034b73b32b9ba37b960891b604482015290519081900360640190fd5b336000908152600b602052604090205460ff161561195f576040805162461bcd60e51b815260206004820152601b60248201527f416c726561647920636c61696d6564206f7220726566756e6465640000000000604482015290519081900360640190fd5b60295460ff166119b6576040805162461bcd60e51b815260206004820152601760248201527f4c6971756964697479206e6f7420796574206164646564000000000000000000604482015290519081900360640190fd5b336000818152600b60209081526040808320805460ff191660011790556005546009909252909120546001600160a01b03919091169163a9059cbb916119fb906132f4565b6040518363ffffffff1660e01b815260040180836001600160a01b0316815260200182815260200192505050602060405180830381600087803b158015611a4157600080fd5b505af1158015611a55573d6000803e3d6000fd5b505050506040513d6020811015611a6b57600080fd5b504790508015611ac85760008160115411611a8857601154611a8a565b815b6007546040519192506001600160a01b03169082156108fc029083906000818181858888f19350505050158015611ac5573d6000803e3d6000fd5b50505b50565b6029546301000000900460ff1615611b16576040805162461bcd60e51b815260206004820152600960248201526810d85b98d95b1b195960ba1b604482015290519081900360640190fd5b600354604080516387cad0bf60e01b81523360048201529051600092839283926001600160a01b03909216916387cad0bf91602480820192606092909190829003018186803b158015611b6857600080fd5b505afa158015611b7c573d6000803e3d6000fd5b505050506040513d6060811015611b9257600080fd5b50805160208083015160409384015160048054865163469d7cd160e11b815296519599509297509095506000946001600160a01b0390921693638d3af9a29383830193909290829003018186803b158015611bec57600080fd5b505afa158015611c00573d6000803e3d6000fd5b505050506040513d6020811015611c1657600080fd5b5051600480546040805163c408689360e01b81523393810193909352519293506000926001600160a01b039091169163c4086893916024808301926020929190829003018186803b158015611c6a57600080fd5b505afa158015611c7e573d6000803e3d6000fd5b505050506040513d6020811015611c9457600080fd5b505190504284830111611cae57611cab81866131b4565b90505b602554811015611d05576040805162461bcd60e51b815260206004820152601760248201527f4e6f7420656e6f756768204253435320746f20766f7465000000000000000000604482015290519081900360640190fd5b3360009081526021602052604090205415611d5d576040805162461bcd60e51b8152602060048201526013602482015272159bdd1948185b1c9958591e4818d85cdd1959606a1b604482015290519081900360640190fd5b3360009081526021602052604090208190558515611d8a57602354611d8290826131b4565b602355611d9b565b602254611d9790826131b4565b6022555b505050505050565b601d5481565b60125481565b6000546001600160a01b0316331480611dd257506001546001600160a01b031633145b611ddb57600080fd5b60298054911515620100000262ff000019909216919091179055565b602954610100900460ff1681565b601c5481565b6007546001600160a01b03163314611e60576040805162461bcd60e51b81526020600482015260136024820152722737ba10383932b9b0b6329031b932b0ba37b960691b604482015290519081900360640190fd5b60295460ff16611e6f57600080fd5b6029546301000000900460ff1615611e8657600080fd5b601254421015611e9557600080fd5b4715611ed4576007546040516001600160a01b03909116904780156108fc02916000818181858888f19350505050158015611ac8573d6000803e3d6000fd5b565b60105481565b602b5481565b60295462010000900460ff1681565b60145481565b60318054603254603380546040805160206002610100600186161581026000190190951604601f8101829004820283018201909352828252959660ff808716979490960490951694939092909190830182828015611f965780601f10611f6b57610100808354040283529160200191611f96565b820191906000526020600020905b815481529060010190602001808311611f7957829003601f168201915b5050505060038301805460408051602060026001851615610100026000190190941693909304601f81018490048402820184019092528181529495949350908301828280156120265780601f10611ffb57610100808354040283529160200191612026565b820191906000526020600020905b81548152906001019060200180831161200957829003601f168201915b5050505050905085565b6007546001600160a01b031633148061205357506000546001600160a01b031633145b612092576040805162461bcd60e51b815260206004820152601e60248201526000805160206136e8833981519152604482015290519081900360640190fd5b6001600160a01b0384166120a557600080fd5b6001600160a01b0383166120b857600080fd5b6001600160a01b0381166120cb57600080fd5b600780546001600160a01b039586166001600160a01b0319918216179091556005805494861694821694909417909355600680549285169284169290921790915560088054919093169116179055565b602e5481565b6000546001600160a01b031633148061214457506001546001600160a01b031633145b61214d57600080fd5b602655565b60285481565b6007546001600160a01b031633148061217b57506001546001600160a01b031633145b6121cc576040805162461bcd60e51b815260206004820152601a60248201527f4e6f742070726573616c652063726561746f72206f7220646576000000000000604482015290519081900360640190fd5b60295460ff166121db57600080fd5b6029546301000000900460ff16156121f257600080fd5b601254620151800142101561220657600080fd5b600554604080516370a0823160e01b815230600482015290516000926001600160a01b0316916370a08231916024808301926020929190829003018186803b15801561225157600080fd5b505afa158015612265573d6000803e3d6000fd5b505050506040513d602081101561227b57600080fd5b505190508015611ac8576005546008546040805163a9059cbb60e01b81526001600160a01b039283166004820152602481018590529051919092169163a9059cbb9160448083019260209291908290030181600087803b1580156122de57600080fd5b505af11580156122f2573d6000803e3d6000fd5b505050506040513d6020811015611ac557600080fd5b60096020526000908152604090205481565b602d5481565b60195481565b6008546001600160a01b031681565b60216020526000908152604090205481565b6007546001600160a01b031633148061236a57506000546001600160a01b031633145b6123a9576040805162461bcd60e51b815260206004820152601e60248201526000805160206136e8833981519152604482015290519081900360640190fd5b602980549115156101000261ff0019909216919091179055565b602954610100900460ff1615806123e95750336000908152600a602052604090205460ff165b612434576040805162461bcd60e51b81526020600482015260176024820152761059191c995cdcc81b9bdd081dda1a5d195b1a5cdd1959604a1b604482015290519081900360640190fd5b33600090815260096020526040902054612487576040805162461bcd60e51b815260206004820152600f60248201526e2737ba1030b71034b73b32b9ba37b960891b604482015290519081900360640190fd5b336000908152600b602052604090205460ff16156124ec576040805162461bcd60e51b815260206004820152601b60248201527f416c726561647920636c61696d6564206f7220726566756e6465640000000000604482015290519081900360640190fd5b6029546301000000900460ff1661261d57601b54421015612545576040805162461bcd60e51b815260206004820152600e60248201526d139bdd081e595d081bdc195b995960921b604482015290519081900360640190fd5b601c5442101561258d576040805162461bcd60e51b815260206004820152600e60248201526d139bdd081e595d0818db1bdcd95960921b604482015290519081900360640190fd5b6000601854116125d2576040805162461bcd60e51b815260206004820152600b60248201526a04e6f20736f6674206361760ac1b604482015290519081900360640190fd5b6018546013541061261d576040805162461bcd60e51b815260206004820152601060248201526f14dbd99d0818d85c081c995858da195960821b604482015290519081900360640190fd5b336000908152600b60209081526040808320805460ff191660011790556009909152902054478061264d57600080fd5b80821115612659578091505b811561268c57604051339083156108fc029084906000818181858888f19350505050158015611ac5573d6000803e3d6000fd5b5050565b60155481565b601b5481565b600e5481565b60225481565b6004546001600160a01b031681565b6000546001600160a01b03163314806126da57506001546001600160a01b031633145b6126e357600080fd5b69021e19e0c9bab24000008110156126fa57600080fd5b670de0b6b3a764000002602455565b60295460ff1615801561272757506007546001600160a01b03163314155b801561273e57506001546001600160a01b03163314155b1561274857600080fd5b60295460ff16801561276557506001546001600160a01b03163314155b1561276f57600080fd5b6029546301000000900460ff161561278657600080fd5b6029805463ff00000019166301000000179055600554604080516370a0823160e01b815230600482015290516000926001600160a01b0316916370a08231916024808301926020929190829003018186803b1580156127e457600080fd5b505afa1580156127f8573d6000803e3d6000fd5b505050506040513d602081101561280e57600080fd5b505190508015611ac8576005546007546040805163a9059cbb60e01b81526001600160a01b039283166004820152602481018590529051919092169163a9059cbb9160448083019260209291908290030181600087803b1580156122de57600080fd5b602a5481565b60135481565b602f5481565b600b6020526000908152604090205460ff1681565b601f5481565b6007546001600160a01b03163314806128c157506000546001600160a01b031633145b612900576040805162461bcd60e51b815260206004820152601e60248201526000805160206136e8833981519152604482015290519081900360640190fd5b6029805461ff0019168215156101000217905560005b81811015611ac5576001600a600085858581811061293057fe5b602090810292909201356001600160a01b0316835250810191909152604001600020805460ff1916911515919091179055600101612916565b6029546301000000900460ff16156129b4576040805162461bcd60e51b815260206004820152600960248201526810d85b98d95b1b195960ba1b604482015290519081900360640190fd5b6000601354116129c357600080fd5b60295460ff1615612a1b576040805162461bcd60e51b815260206004820152601760248201527f4c697175696469747920616c7265616479206164646564000000000000000000604482015290519081900360640190fd5b602954610100900460ff161580612a415750336000908152600a602052604090205460ff165b80612a5657506007546001600160a01b031633145b612a915760405162461bcd60e51b81526004018080602001828103825260268152602001806136a16026913960400191505060405180910390fd5b601754612aa690670de0b6b3a76400006132b2565b60135410158015612ab85750601e5442105b15612b17576007546001600160a01b03163314612b12576040805162461bcd60e51b81526020600482015260136024820152722737ba10383932b9b0b6329031b932b0ba37b960691b604482015290519081900360640190fd5b612c35565b601e544210612be8576007546001600160a01b0316331480612b4757503360009081526009602052604090205415155b612b98576040805162461bcd60e51b815260206004820152601f60248201527f4e6f742070726573616c652063726561746f72206f7220696e766573746f7200604482015290519081900360640190fd5b6018546013541015612b12576040805162461bcd60e51b815260206004820152601460248201527314dbd99d0818d85c081b9bdd081c995858da195960621b604482015290519081900360640190fd5b6040805162461bcd60e51b815260206004820152601d60248201527f4c69717569646974792063616e6e6f7420626520616464656420796574000000604482015290519081900360640190fd5b6029805460ff1916600117908190556013549060009062010000900460ff16612c9a576000612c746064611250600c548661321790919063ffffffff16565b9050600d54811180612c88575082600d5410155b612c9457600d54612c96565b805b9150505b8015612d2d57612caa82826132b2565b6001546040519193506001600160a01b03169082156108fc029083906000818181858888f19350505050158015612ce5573d6000803e3d6000fd5b50612cf082826132b2565b600080546040519294506001600160a01b03169183156108fc0291849190818181858888f19350505050158015612d2b573d6000803e3d6000fd5b505b6000612d4960646112506020548661321790919063ffffffff16565b90506000612d6e601d54611250670de0b6b3a76400008561321790919063ffffffff16565b90506000600460009054906101000a90046001600160a01b03166001600160a01b03166392ea45046040518163ffffffff1660e01b815260040160206040518083038186803b158015612dc057600080fd5b505afa158015612dd4573d6000803e3d6000fd5b505050506040513d6020811015612dea57600080fd5b50516005546040805163095ea7b360e01b81526001600160a01b03808516600483015260248201879052915193945091169163095ea7b3916044808201926020929091908290030181600087803b158015612e4457600080fd5b505af1158015612e58573d6000803e3d6000fd5b505050506040513d6020811015612e6e57600080fd5b50506005546002546001600160a01b038084169263f305d719928792918216918791600091829116612ea2426103846131b4565b6040518863ffffffff1660e01b815260040180876001600160a01b03168152602001868152602001858152602001848152602001836001600160a01b0316815260200182815260200196505050505050506060604051808303818588803b158015612f0c57600080fd5b505af1158015612f20573d6000803e3d6000fd5b50505050506040513d6060811015612f3757600080fd5b5050601054612f6490612f5290670de0b6b3a7640000613217565b61125047670de0b6b3a7640000613217565b6011555050506201518042016012555050565b6029546301000000900460ff1681565b6000546001600160a01b0316331480612faa57506001546001600160a01b031633145b612fb357600080fd5b60005b81811015611ac557600160306000858585818110612fd057fe5b602090810292909201356001600160a01b0316835250810191909152604001600020805460ff1916911515919091179055600101612fb6565b60185481565b60245481565b6007546001600160a01b031633148061303857506000546001600160a01b031633145b613077576040805162461bcd60e51b815260206004820152601e60248201526000805160206136e8833981519152604482015290519081900360640190fd5b6000841161308457600080fd5b6000831161309157600080fd5b6000821161309e57600080fd5b600081116130ab57600080fd5b6000601c54116130ba57600080fd5b601c548310156130c957600080fd5b601d93909355601e91909155601f55602055565b60115481565b60295460ff1681565b601a5481565b3360009081526030602052604090205460ff16613156576040805162461bcd60e51b815260206004820152601f60248201527f41756469746f722041646472657373206e6f742077686974656c697374656400604482015290519081900360640190fd5b60318790556032805460ff19168715151761ff001916610100871515021790556131826033858561360d565b5061318f6034838361360d565b5050505050505050565b60265481565b60235481565b6005546001600160a01b031681565b60008282018381101561320e576040805162461bcd60e51b815260206004820152601b60248201527f536166654d6174683a206164646974696f6e206f766572666c6f770000000000604482015290519081900360640190fd5b90505b92915050565b60008261322657506000613211565b8282028284828161323357fe5b041461320e5760405162461bcd60e51b81526004018080602001828103825260218152602001806136c76021913960400191505060405180910390fd5b600061320e83836040518060400160405280601a81526020017f536166654d6174683a206469766973696f6e206279207a65726f000000000000815250613511565b600061320e83836040518060400160405280601e81526020017f536166654d6174683a207375627472616374696f6e206f766572666c6f7700008152506135b3565b600354604080516387cad0bf60e01b815233600482015290516000928392839283926001600160a01b0316916387cad0bf916024808301926060929190829003018186803b15801561334557600080fd5b505afa158015613359573d6000803e3d6000fd5b505050506040513d606081101561336f57600080fd5b50805160208083015160409384015160048054865163469d7cd160e11b815296519599509297509095506000946001600160a01b0390921693638d3af9a29383830193909290829003018186803b1580156133c957600080fd5b505afa1580156133dd573d6000803e3d6000fd5b505050506040513d60208110156133f357600080fd5b5051600480546040805163c408689360e01b81523393810193909352519293506000926001600160a01b039091169163c4086893916024808301926020929190829003018186803b15801561344757600080fd5b505afa15801561345b573d6000803e3d6000fd5b505050506040513d602081101561347157600080fd5b50519050428483011161348b5761348881866131b4565b90505b60275481106134eb5760006134b2606461125060285460165461321790919063ffffffff16565b90506134de6134cc826016546132b290919063ffffffff16565b6112508a670de0b6b3a7640000613217565b965050505050505061350c565b6016546135049061125089670de0b6b3a7640000613217565b955050505050505b919050565b6000818361359d5760405162461bcd60e51b81526004018080602001828103825283818151815260200191508051906020019080838360005b8381101561356257818101518382015260200161354a565b50505050905090810190601f16801561358f5780820380516001836020036101000a031916815260200191505b509250505060405180910390fd5b5060008385816135a957fe5b0495945050505050565b600081848411156136055760405162461bcd60e51b815260206004820181815283516024840152835190928392604490910191908501908083836000831561356257818101518382015260200161354a565b505050900390565b828054600181600116156101000203166002900490600052602060002090601f016020900481019282601f1061364e5782800160ff1982351617855561367b565b8280016001018555821561367b579182015b8281111561367b578235825591602001919060010190613660565b5061368792915061368b565b5090565b5b80821115613687576000815560010161368c56fe4e6f742077686974656c6973746564206f72206e6f742070726573616c652063726561746f72536166654d6174683a206d756c7469706c69636174696f6e206f766572666c6f774e6f742070726573616c652063726561746f72206f7220666163746f72790000a2646970667358221220d6267a6ac1097bcc32ef336f5210133ab90bdc953c734e8d39d9f238381ca5eb64736f6c634300060c0033",
  "immutableReferences": {},
  "source": "/**\n *Submitted for verification at BscScan.com on 2021-03-09\n*/\n\npragma solidity 0.6.12;\n\nimport \"./SafeMath.sol\";\nimport \"./BSCstarterStaking.sol\";\nimport \"./IPancakeSwapV2Router02.sol\";\n\ncontract BSCstarterPresale {\n    using SafeMath for uint256;\n\n    address payable internal bscsFactoryAddress; // address that creates the presale contracts\n    address payable public bscsDevAddress; // address where dev fees will be transferred to\n    address public bscsLiqLockAddress; // address where LP tokens will be locked\n    BSCstarterStaking public bscsStakingPool;\n    BSCstarterInfo public bscStarterInfo;\n\n    IERC20 public token; // token that will be sold\n    IERC20 public bscsToken; // system token\n    address payable public presaleCreatorAddress; // address where percentage of invested wei will be transferred to\n    address public unsoldTokensDumpAddress; // address where unsold tokens will be transferred to\n\n    mapping(address => uint256) public investments; // total wei invested per address\n    mapping(address => bool) public whitelistedAddresses; // addresses eligible in presale\n    mapping(address => bool) public claimed; // if true, it means investor already claimed the tokens or got a refund\n\n    uint256 private bscsDevFeePercentage; // dev fee to support the development of BSCstarter\n    uint256 private bscsMinDevFeeInWei; // minimum fixed dev fee to support the development of BSCstarter\n    uint256 public bscsId; // used for fetching presale without referencing its address\n    uint256 public presaleGrantId; // tracks any incubator grants given\n\n    uint256 public totalInvestorsCount; // total investors count\n    uint256 public presaleCreatorClaimWei; // wei to transfer to presale creator per investor claim\n    uint256 public presaleCreatorClaimTime; // time when presale creator can collect funds raise\n    uint256 public totalCollectedWei; // total wei collected\n    uint256 public totalTokens; // total tokens to be sold\n    uint256 public tokensLeft; // available tokens to be sold\n    uint256 public tokenPriceInWei; // token presale wei price per 1 token\n    uint256 public hardCapInWei; // maximum wei amount that can be invested in presale\n    uint256 public softCapInWei; // minimum wei amount to invest in presale, if not met, invested wei will be returned\n    uint256 public maxInvestInWei; // maximum wei amount that can be invested per wallet address\n    uint256 public minInvestInWei; // minimum wei amount that can be invested per wallet address\n    uint256 public openTime; // time when presale starts, investing is allowed\n    uint256 public closeTime; // time when presale closes, investing is not allowed\n    uint256 public cakeListingPriceInWei; // token price when listed in PancakeSwap\n    uint256 public cakeLiquidityAddingTime; // time when adding of liquidity in PancakeSwap starts, investors can claim their tokens afterwards\n    uint256 public cakeLPTokensLockDurationInDays; // how many days after the liquity is added the presale creator can unlock the LP tokens\n    uint256 public cakeLiquidityPercentageAllocation; // how many percentage of the total invested wei that will be added as liquidity\n\n    mapping(address => uint256) public voters; // addresses voting on sale\n    uint256 public noVotes; // total number of no votes\n    uint256 public yesVotes; // total number of yes votes\n    uint256 public minYesVotesThreshold = 100000 * 1e18; // minimum number of yes votes needed to pass\n    uint256 public minVoterBSCSBalance = 1000 * 1e18; // minimum number of BSCS tokens to hold to vote\n    uint256 public minInvestorBSCSBalance; // minimum number of BSCS tokens to hold to invest\n    uint256 public minRewardQualifyBal; // min amount to HODL to qualify for token discounts\n    uint256 public minRewardQualifyPercentage; // percentage of discount on tokens for qualifying holders\n\n    bool public cakeLiquidityAdded = false; // if true, liquidity is added in PancakeSwap and lp tokens are locked\n    bool public onlyWhitelistedAddressesAllowed = false; // if true, only whitelisted addresses can invest\n    bool public bscsDevFeesExempted = false; // if true, presale will be exempted from dev fees\n    bool public presaleCancelled = false; // if true, investing will not be allowed, investors can withdraw, presale creator can withdraw their tokens\n\n    bytes32 public saleTitle;\n    bytes32 public linkTelegram;\n    bytes32 public linkTwitter;\n    bytes32 public linkGithub;\n    bytes32 public linkWebsite;\n    bytes32 public linkLogo;\n\n    mapping(address => bool) public auditorWhitelistedAddresses; // addresses eligible to perform audit\n    struct AuditorInfo {\n        bytes32 auditor; // auditor name\n        bool isVerified; // if true -> passed, false -> failed\n        bool isWarning; // if true -> warning, false -> no warning\n        string verifiedHash; // stores content of audit summary (actual text)\n        string warningHash; // stores content of warnings\n    }\n    AuditorInfo public auditInformation;\n\n    constructor(\n        address _bscsFactoryAddress,\n        address _bscStarterInfo,\n        address _bscsDevAddress,\n        uint256 _minRewardQualifyBal,\n        uint256 _minRewardQualifyPercentage\n    ) public {\n        require(_bscsFactoryAddress != address(0));\n        require(_bscsDevAddress != address(0));\n\n        bscsFactoryAddress = payable(_bscsFactoryAddress);\n        bscsDevAddress = payable(_bscsDevAddress);\n        minRewardQualifyBal = _minRewardQualifyBal;\n        minRewardQualifyPercentage = _minRewardQualifyPercentage;\n        bscStarterInfo = BSCstarterInfo(_bscStarterInfo);\n    }\n\n    modifier onlyBscsDev() {\n        require(\n            bscsFactoryAddress == msg.sender || bscsDevAddress == msg.sender\n        );\n        _;\n    }\n\n    modifier onlyPresaleCreatorOrBscsFactory() {\n        require(\n            presaleCreatorAddress == msg.sender ||\n                bscsFactoryAddress == msg.sender,\n            \"Not presale creator or factory\"\n        );\n        _;\n    }\n\n    modifier onlyPresaleCreatorOrBscsDev() {\n        require(\n            presaleCreatorAddress == msg.sender || bscsDevAddress == msg.sender,\n            \"Not presale creator or dev\"\n        );\n        _;\n    }\n\n    modifier onlyPresaleCreator() {\n        require(presaleCreatorAddress == msg.sender, \"Not presale creator\");\n        _;\n    }\n\n    modifier whitelistedAddressOnly() {\n        require(\n            !onlyWhitelistedAddressesAllowed ||\n                whitelistedAddresses[msg.sender],\n            \"Address not whitelisted\"\n        );\n        _;\n    }\n\n    modifier presaleIsNotCancelled() {\n        require(!presaleCancelled, \"Cancelled\");\n        _;\n    }\n\n    modifier investorOnly() {\n        require(investments[msg.sender] > 0, \"Not an investor\");\n        _;\n    }\n\n    modifier notYetClaimedOrRefunded() {\n        require(!claimed[msg.sender], \"Already claimed or refunded\");\n        _;\n    }\n\n    modifier votesPassed() {\n        require(\n            yesVotes > noVotes && yesVotes >= minYesVotesThreshold,\n            \"Votes not passed\"\n        );\n        _;\n    }\n\n    modifier whitelistedAuditorOnly() {\n        require(\n            auditorWhitelistedAddresses[msg.sender],\n            \"Auditor Address not whitelisted\"\n        );\n        _;\n    }\n\n    function setAddressInfo(\n        address _presaleCreator,\n        address _tokenAddress,\n        address _bscsTokenAddress,\n        address _unsoldTokensDumpAddress\n    ) external onlyPresaleCreatorOrBscsFactory {\n        require(_presaleCreator != address(0));\n        require(_tokenAddress != address(0));\n        require(_unsoldTokensDumpAddress != address(0));\n\n        presaleCreatorAddress = payable(_presaleCreator);\n        token = IERC20(_tokenAddress);\n        bscsToken = IERC20(_bscsTokenAddress);\n        unsoldTokensDumpAddress = _unsoldTokensDumpAddress;\n    }\n\n    function setGeneralInfo(\n        uint256 _totalTokens,\n        uint256 _tokenPriceInWei,\n        uint256 _hardCapInWei,\n        uint256 _softCapInWei,\n        uint256 _maxInvestInWei,\n        uint256 _minInvestInWei,\n        uint256 _openTime,\n        uint256 _closeTime\n    ) external onlyPresaleCreatorOrBscsFactory {\n        require(_totalTokens > 0);\n        require(_tokenPriceInWei > 0);\n        require(_openTime > 0);\n        require(_closeTime > 0);\n        require(_hardCapInWei > 0);\n\n        // Hard cap > (token amount * token price)\n        require(_hardCapInWei <= _totalTokens.mul(_tokenPriceInWei));\n        // Soft cap > to hard cap\n        require(_softCapInWei <= _hardCapInWei);\n        //  Min. wei investment > max. wei investment\n        require(_minInvestInWei <= _maxInvestInWei);\n        // Open time >= close time\n        require(_openTime < _closeTime);\n\n        totalTokens = _totalTokens;\n        tokensLeft = _totalTokens;\n        tokenPriceInWei = _tokenPriceInWei;\n        hardCapInWei = _hardCapInWei;\n        softCapInWei = _softCapInWei;\n        maxInvestInWei = _maxInvestInWei;\n        minInvestInWei = _minInvestInWei;\n        openTime = _openTime;\n        closeTime = _closeTime;\n    }\n\n    function setPancakeSwapInfo(\n        uint256 _cakeListingPriceInWei,\n        uint256 _cakeLiquidityAddingTime,\n        uint256 _cakeLPTokensLockDurationInDays,\n        uint256 _cakeLiquidityPercentageAllocation\n    ) external onlyPresaleCreatorOrBscsFactory {\n        require(_cakeListingPriceInWei > 0);\n        require(_cakeLiquidityAddingTime > 0);\n        require(_cakeLPTokensLockDurationInDays > 0);\n        require(_cakeLiquidityPercentageAllocation > 0);\n\n        require(closeTime > 0);\n        // Listing time < close time\n        require(_cakeLiquidityAddingTime >= closeTime);\n\n        cakeListingPriceInWei = _cakeListingPriceInWei;\n        cakeLiquidityAddingTime = _cakeLiquidityAddingTime;\n        cakeLPTokensLockDurationInDays = _cakeLPTokensLockDurationInDays;\n        cakeLiquidityPercentageAllocation = _cakeLiquidityPercentageAllocation;\n    }\n\n    function setStringInfo(\n        bytes32 _saleTitle,\n        bytes32 _linkTelegram,\n        bytes32 _linkGithub,\n        bytes32 _linkTwitter,\n        bytes32 _linkWebsite,\n        bytes32 _linkLogo\n    ) external onlyPresaleCreatorOrBscsFactory {\n        saleTitle = _saleTitle;\n        linkTelegram = _linkTelegram;\n        linkGithub = _linkGithub;\n        linkTwitter = _linkTwitter;\n        linkWebsite = _linkWebsite;\n        linkLogo = _linkLogo;\n    }\n\n    function setAuditorInfo(\n        bytes32 _auditor,\n        bool _isVerified,\n        bool _isWarning,\n        string calldata _verifiedHash,\n        string calldata _warningHash\n    ) external whitelistedAuditorOnly {\n        auditInformation.auditor = _auditor;\n        auditInformation.isVerified = _isVerified;\n        auditInformation.isWarning = _isWarning;\n        auditInformation.verifiedHash = _verifiedHash;\n        auditInformation.warningHash = _warningHash;\n    }\n\n    function setBscsInfo(\n        address _bscsLiqLockAddress,\n        uint256 _bscsDevFeePercentage,\n        uint256 _bscsMinDevFeeInWei,\n        uint256 _bscsId,\n        uint256 _presaleGrantId,\n        address _bscsStakingPool\n    ) external onlyBscsDev {\n        bscsLiqLockAddress = _bscsLiqLockAddress;\n        bscsDevFeePercentage = _bscsDevFeePercentage;\n        bscsMinDevFeeInWei = _bscsMinDevFeeInWei;\n        bscsId = _bscsId;\n        presaleGrantId = _presaleGrantId;\n        bscsStakingPool = BSCstarterStaking(_bscsStakingPool);\n    }\n\n    function setBscsDevFeesExempted(bool _bscsDevFeesExempted)\n        external\n        onlyBscsDev\n    {\n        bscsDevFeesExempted = _bscsDevFeesExempted;\n    }\n\n    function setOnlyWhitelistedAddressesAllowed(\n        bool _onlyWhitelistedAddressesAllowed\n    ) external onlyPresaleCreatorOrBscsFactory {\n        onlyWhitelistedAddressesAllowed = _onlyWhitelistedAddressesAllowed;\n    }\n\n    function setMinVoterBSCSBalance(uint256 _minVoterBSCSBalance)\n        external\n        onlyBscsDev\n    {\n        require(_minVoterBSCSBalance >= 10 * 1e18);\n        minVoterBSCSBalance = _minVoterBSCSBalance * 1e18;\n    }\n\n    function setMinYesVotesThreshold(uint256 _minYesVotesThreshold)\n        external\n        onlyBscsDev\n    {\n        require(_minYesVotesThreshold >= 10000 * 1e18); // cannot be < 1% of supply\n        minYesVotesThreshold = _minYesVotesThreshold * 1e18;\n    }\n\n    function setMinInvestorBSCSBalance(uint256 _minInvestorBSCSBalance) \n        external \n        onlyBscsDev \n    {\n        minInvestorBSCSBalance = _minInvestorBSCSBalance;\n    }\n\n    function addWhitelistedAddresses(address[] calldata _whitelistedAddresses)\n        external\n        onlyPresaleCreatorOrBscsFactory\n    {\n        onlyWhitelistedAddressesAllowed = _whitelistedAddresses.length > 0;\n        for (uint256 i = 0; i < _whitelistedAddresses.length; i++) {\n            whitelistedAddresses[_whitelistedAddresses[i]] = true;\n        }\n    }\n\n    function addAuditorWhitelistedAddresses(\n        address[] calldata _whitelistedAddresses\n    ) external onlyBscsDev {\n        for (uint256 i = 0; i < _whitelistedAddresses.length; i++) {\n            auditorWhitelistedAddresses[_whitelistedAddresses[i]] = true;\n        }\n    }\n\n    function getTokenAmount(uint256 _weiAmount)\n        internal\n        view\n        returns (uint256)\n    {\n        uint256 balance;\n        uint256 lastStakedTimestamp;\n        uint256 lastUnstakedTimestamp;\n        (balance, lastStakedTimestamp, lastUnstakedTimestamp) = bscsStakingPool\n            .accountInfos(msg.sender);\n        uint256 minStakeTime = bscStarterInfo.getMinStakeTime();\n        uint256 bscsBalance = bscStarterInfo.getLockedBalance(msg.sender);\n\n        if (lastStakedTimestamp + minStakeTime <= block.timestamp) {\n            bscsBalance = bscsBalance.add(balance);\n        }\n        if (bscsBalance >= minRewardQualifyBal) {\n            uint256 pctQualifyingDiscount =\n                tokenPriceInWei.mul(minRewardQualifyPercentage).div(100);\n            return\n                _weiAmount.mul(1e18).div(\n                    tokenPriceInWei.sub(pctQualifyingDiscount)\n                );\n        } else {\n            return _weiAmount.mul(1e18).div(tokenPriceInWei);\n        }\n    }\n\n    function invest()\n        public\n        payable\n        whitelistedAddressOnly\n        presaleIsNotCancelled        \n    {\n        require(block.timestamp >= openTime, \"Not yet opened\");\n        require(block.timestamp < closeTime, \"Closed\");\n        require(totalCollectedWei < hardCapInWei, \"Hard cap reached\");\n        require(tokensLeft > 0);\n        require(msg.value > 0);\n\n        uint256 balance;\n        uint256 lastStakedTimestamp;\n        uint256 lastUnstakedTimestamp;\n        (balance, lastStakedTimestamp, lastUnstakedTimestamp) = bscsStakingPool\n            .accountInfos(msg.sender);\n        uint256 minStakeTime = bscStarterInfo.getMinStakeTime();\n        uint256 bscsBalance = bscStarterInfo.getLockedBalance(msg.sender);\n\n        if (lastStakedTimestamp + minStakeTime <= block.timestamp) {\n            bscsBalance = bscsBalance.add(balance);\n        }\n        if (bscsBalance >= minRewardQualifyBal) {\n            // apply discount to qualifying hodlers\n            uint256 pctQualifyingDiscount =\n                tokenPriceInWei.mul(minRewardQualifyPercentage).div(100);\n            require(\n                msg.value <=\n                    tokensLeft\n                        .mul(tokenPriceInWei.sub(pctQualifyingDiscount))\n                        .div(1e18),\n                \"Not enough tokens left\"\n            );\n        } else {\n            require(\n                msg.value <= tokensLeft.mul(tokenPriceInWei).div(1e18),\n                \"Not enough tokens left\"\n            );\n        }\n        uint256 totalInvestmentInWei = investments[msg.sender].add(msg.value);\n        require(\n            totalInvestmentInWei >= minInvestInWei ||\n                totalCollectedWei >= hardCapInWei.sub(1 ether),\n            \"Min investment not reached\"\n        );\n        require(\n            maxInvestInWei == 0 || totalInvestmentInWei <= maxInvestInWei,\n            \"Max investment reached\"\n        );\n\n        if (minInvestorBSCSBalance > 0) {\n            require(\n                bscsBalance >= minInvestorBSCSBalance,\n                \"Not enough BSCS on account\"\n            );\n        }\n\n        if (investments[msg.sender] == 0) {\n            totalInvestorsCount = totalInvestorsCount.add(1);\n        }\n\n        totalCollectedWei = totalCollectedWei.add(msg.value);\n        investments[msg.sender] = totalInvestmentInWei;\n        tokensLeft = tokensLeft.sub(getTokenAmount(msg.value));\n    }\n\n    receive() external payable {\n        invest();\n    }\n\n    function addLiquidityAndLockLPTokens() external presaleIsNotCancelled {\n        require(totalCollectedWei > 0);\n        require(!cakeLiquidityAdded, \"Liquidity already added\");\n        require(\n            !onlyWhitelistedAddressesAllowed ||\n                whitelistedAddresses[msg.sender] ||\n                msg.sender == presaleCreatorAddress,\n            \"Not whitelisted or not presale creator\"\n        );\n\n        if (\n            totalCollectedWei >= hardCapInWei.sub(1 ether) &&\n            block.timestamp < cakeLiquidityAddingTime\n        ) {\n            require(msg.sender == presaleCreatorAddress, \"Not presale creator\");\n        } else if (block.timestamp >= cakeLiquidityAddingTime) {\n            require(\n                msg.sender == presaleCreatorAddress ||\n                    investments[msg.sender] > 0,\n                \"Not presale creator or investor\"\n            );\n            require(totalCollectedWei >= softCapInWei, \"Soft cap not reached\");\n        } else {\n            revert(\"Liquidity cannot be added yet\");\n        }\n\n        cakeLiquidityAdded = true;\n\n        uint256 finalTotalCollectedWei = totalCollectedWei;\n        uint256 bscsDevFeeInWei;\n        if (!bscsDevFeesExempted) {\n            uint256 pctDevFee =\n                finalTotalCollectedWei.mul(bscsDevFeePercentage).div(100);\n            bscsDevFeeInWei = pctDevFee > bscsMinDevFeeInWei ||\n                bscsMinDevFeeInWei >= finalTotalCollectedWei\n                ? pctDevFee\n                : bscsMinDevFeeInWei;\n        }\n        if (bscsDevFeeInWei > 0) {\n            finalTotalCollectedWei = finalTotalCollectedWei.sub(\n                bscsDevFeeInWei\n            );\n            bscsDevAddress.transfer(bscsDevFeeInWei);\n            // factory manages BSCS hodlers fund where they can claim earned BNB rewards\n            finalTotalCollectedWei = finalTotalCollectedWei.sub(\n                bscsDevFeeInWei\n            );\n            bscsFactoryAddress.transfer(bscsDevFeeInWei);\n        }\n\n        uint256 liqPoolEthAmount =\n            finalTotalCollectedWei.mul(cakeLiquidityPercentageAllocation).div(\n                100\n            );\n        uint256 liqPoolTokenAmount =\n            liqPoolEthAmount.mul(1e18).div(cakeListingPriceInWei);\n\n        IPancakeSwapV2Router02 pancakeSwapRouter =\n            IPancakeSwapV2Router02(\n                address(bscStarterInfo.getPancakeSwapRouter())\n            );\n\n        token.approve(address(pancakeSwapRouter), liqPoolTokenAmount);\n\n        pancakeSwapRouter.addLiquidityETH{value: liqPoolEthAmount}(\n            address(token),\n            liqPoolTokenAmount,\n            0,\n            0,\n            bscsLiqLockAddress,\n            block.timestamp.add(15 minutes)\n        );\n\n        presaleCreatorClaimWei = address(this).balance.mul(1e18).div(\n            totalInvestorsCount.mul(1e18)\n        );\n        presaleCreatorClaimTime = block.timestamp + 1 days;\n    }\n\n    function vote(bool yes) external presaleIsNotCancelled {\n        uint256 balance;\n        uint256 lastStakedTimestamp;\n        uint256 lastUnstakedTimestamp;\n        (balance, lastStakedTimestamp, lastUnstakedTimestamp) = bscsStakingPool\n            .accountInfos(msg.sender);\n        uint256 minStakeTime = bscStarterInfo.getMinStakeTime();\n        uint256 voterBalance = bscStarterInfo.getLockedBalance(msg.sender);\n\n        if (lastStakedTimestamp + minStakeTime <= block.timestamp) {\n            voterBalance = voterBalance.add(balance);\n        }\n\n        require(voterBalance >= minVoterBSCSBalance, \"Not enough BSCS to vote\");\n        require(voters[msg.sender] == 0, \"Vote already casted\");\n\n        voters[msg.sender] = voterBalance;\n        if (yes) {\n            yesVotes = yesVotes.add(voterBalance);\n        } else {\n            noVotes = noVotes.add(voterBalance);\n        }\n    }\n\n    function claimTokens()\n        external\n        whitelistedAddressOnly\n        presaleIsNotCancelled\n        investorOnly\n        notYetClaimedOrRefunded\n    {\n        require(cakeLiquidityAdded, \"Liquidity not yet added\");\n\n        claimed[msg.sender] = true; // make sure this goes first before transfer to prevent reentrancy\n        token.transfer(msg.sender, getTokenAmount(investments[msg.sender]));\n\n        uint256 balance = address(this).balance;\n        if (balance > 0) {\n            uint256 funds =\n                presaleCreatorClaimWei > balance\n                    ? balance\n                    : presaleCreatorClaimWei;\n            presaleCreatorAddress.transfer(funds);\n        }\n    }\n\n    function getRefund()\n        external\n        whitelistedAddressOnly\n        investorOnly\n        notYetClaimedOrRefunded\n    {\n        if (!presaleCancelled) {\n            require(block.timestamp >= openTime, \"Not yet opened\");\n            require(block.timestamp >= closeTime, \"Not yet closed\");\n            require(softCapInWei > 0, \"No soft cap\");\n            require(totalCollectedWei < softCapInWei, \"Soft cap reached\");\n        }\n\n        claimed[msg.sender] = true; // make sure this goes first before transfer to prevent reentrancy\n        uint256 investment = investments[msg.sender];\n        uint256 presaleBalance = address(this).balance;\n        require(presaleBalance > 0);\n\n        if (investment > presaleBalance) {\n            investment = presaleBalance;\n        }\n\n        if (investment > 0) {\n            msg.sender.transfer(investment);\n        }\n    }\n\n    function cancelAndTransferTokensToPresaleCreator() external {\n        if (\n            !cakeLiquidityAdded &&\n            presaleCreatorAddress != msg.sender &&\n            bscsDevAddress != msg.sender\n        ) {\n            revert();\n        }\n        if (cakeLiquidityAdded && bscsDevAddress != msg.sender) {\n            revert();\n        }\n\n        require(!presaleCancelled);\n        presaleCancelled = true;\n\n        uint256 balance = token.balanceOf(address(this));\n        if (balance > 0) {\n            token.transfer(presaleCreatorAddress, balance);\n        }\n    }\n\n    function collectFundsRaised() external onlyPresaleCreator {\n        require(cakeLiquidityAdded);\n        require(!presaleCancelled);\n        require(block.timestamp >= presaleCreatorClaimTime);\n\n        if (address(this).balance > 0) {\n            presaleCreatorAddress.transfer(address(this).balance);\n        }\n    }\n\n    function burnUnsoldTokens() external onlyPresaleCreatorOrBscsDev {\n        require(cakeLiquidityAdded);\n        require(!presaleCancelled);\n        require(block.timestamp >= presaleCreatorClaimTime + 1 days); // wait 2 days before allowing burn\n\n        uint256 unsoldTokensAmount = token.balanceOf(address(this));\n        if (unsoldTokensAmount > 0) {\n            token.transfer(unsoldTokensDumpAddress, unsoldTokensAmount);\n        }\n    }\n}",
  "sourcePath": "/Users/wilsontay/Projects/MetaCoin copy/contracts/BSCstarterPresale.sol",
  "compiler": {
    "name": "solc",
    "version": "0.6.12+commit.27d51765.Emscripten.clang"
  },
  "schemaVersion": "3.2.5",
  "updatedAt": "2021-05-01T14:30:23.977Z",
  "networkType": "ethereum",
  "devdoc": {
    "kind": "dev",
    "methods": {},
    "version": 1
  },
  "userdoc": {
    "kind": "user",
    "methods": {},
    "version": 1
  }
}